:100000000C9446000C945D000C945D000C945D0013
:100010000C945D000C945D000C945D000C945D00EC
:100020000C945D000C945D000C945D000C945D00DC
:100030000C945D000C945D000C945D000C945D00CC
:100040000C945D000C945D000C945D000C945D00BC
:100050000C945D000C945D000C945D000C945D00AC
:100060000C945D000C945D000C945D000C945D009C
:100070000C945D000C945D000C945D000C945D008C
:100080000C945D000C945D000C945D0011241FBE67
:10009000CFEFD0E1DEBFCDBF15E0A0E0B1E0EEE1F3
:1000A000F7E000E00BBF02C007900D92A630B10749
:1000B000D9F70E94DF020C948D030C940000FC0120
:1000C0004115510561F4208181E090E002C0880F64
:1000D000991F6A95E2F780958223808308954130C5
:1000E000510541F4808102C0440F551F6A95E2F723
:1000F000842B80830895C798C698C598979896983A
:1001000095981F981E981D9808950097C9F488E344
:1001100090E064E070E040E050E00E945F0082E325
:1001200090E064E070E040E050E00E945F0083E215
:1001300090E064E070E040E050E00E945F000895CD
:100140000197C1F488E390E064E070E041E050E0A2
:100150000E945F0082E390E064E070E041E050E0E4
:100160000E945F0083E290E064E070E041E050E0D4
:100170000E945F0008950F931F938C01FC01408142
:1001800088E390E067E070E050E00E945F00F801D3
:10019000418188E390E066E070E050E00E945F00FB
:1001A000F801428183E290E067E070E050E00E9455
:1001B0005F00F801438183E290E066E070E050E088
:1001C0000E945F001F910F910895CF92DF92EF92EE
:1001D000FF920F931F93DF93CF9300D000D0CDB742
:1001E000DEB780E197E228EC30E0F9013197F1F7D2
:1001F0000197D9F781E090E00E94850080ED97E0BB
:1002000028EC30E0F9013197F1F70197D9F700E0D8
:1002100010E07E010894E11CF11C88ECC82ED12C62
:100220001EC0C801022E02C0959587950A94E2F778
:1002300081708193215030408FEF2F3F380789F72D
:10024000C7010E94BB0080ED97E0F6013197F1F7FE
:100250000197D9F70F5F1F4F0031110521F0F7010A
:1002600023E030E0DECF0E947B0080E090E00E943F
:1002700085000F900F900F900F90CF91DF911F91FD
:100280000F91FF90EF90DF90CF9008952F923F92C3
:100290004F925F926F927F928F929F92AF92BF9296
:1002A000CF92DF92EF92FF920F931F93DF93CF9342
:1002B000CDB7DEB7A4970FB6F894DEBF0FBECDBFA3
:1002C0005C016B01DC010D900020E9F71197A81B80
:1002D000B90B8FEF6F3F780711F03B0101C03D0173
:1002E000FE013596CE0185961192E817F907E1F7E0
:1002F000EE24FF2425E0822E912C8C0E9D1E1E01E3
:100300000894211C311C98EC492E512C56C040E019
:1003100050E0F501EE0DFF1D8081882319F4C11412
:10032000D10419F00894E11CF11CD401A40FB51FED
:1003300027E030E0E82FF0E0CF01022E02C09595D3
:1003400087950A94E2F781708D93215030408FEFAA
:100350002F3F380789F7485F5F4F40325105C9F694
:1003600081E090E00E94850000E010E014C08D91D3
:100370008193E815F905D9F7C1010E94BB0088EE09
:1003800093E0F2013197F1F70197D9F70C5F1F4F16
:100390000032110529F0D401A00FB11FF101E7CF00
:1003A0000E947B0080E090E00E94850088EE93E050
:1003B000F2013197F1F70197D9F7E614F7040CF43D
:1003C000A6CFA4960FB6F894DEBF0FBECDBFCF91D7
:1003D000DF911F910F91FF90EF90DF90CF90BF9032
:1003E000AF909F908F907F906F905F904F903F90D5
:1003F0002F9008958F929F92AF92BF92CF92DF92EB
:10040000EF92FF920F931F93DF93CF93CDB7DEB799
:1004100029970FB6F894DEBF0FBECDBF1D821E8296
:100420001F82188619866C01EE24FF2400E010E07C
:1004300035E0832E912C8C0E9D1E5E010894A11C2C
:10044000B11C28C08C3291F4C4010E946703F501ED
:10045000EE0DFF1D80831D821E821F821886198665
:100460000894E11CF11C00E010E006C0F401E00F6C
:10047000F11F80830F5F1F4F84E0E816F10439F409
:10048000C50164E070E00E944601EE24FF24089458
:10049000C11CD11CF60180818823A1F629960FB6D4
:1004A000F894DEBF0FBECDBFCF91DF911F910F91AA
:1004B000FF90EF90DF90CF90BF90AF909F908F9084
:1004C0000895AF92BF92CF92DF92EF92FF920F9377
:1004D0001F93DF93CF93CDB7DEB729970FB6F8946C
:1004E000DEBF0FBECDBF1D821E821F8218867C011B
:1004F00000E010E020E030E045E0A42EB12CAC0E8E
:10050000BD1E6E010894C11CD11C43C0F501E20F51
:10051000F31F8083F70180818D3219F02F5F3F4FE9
:1005200015C0C5010E946703009711F48FE390E0A6
:10053000F601E00FF11F8F7780831D821E821F82DC
:10054000188619860F5F1F4F20E030E0F701808189
:10055000883781F4C5010E946703F601E00FF11F9F
:1005600080831D821E821F82188619860F5F1F4F8F
:1005700020E030E00430110549F4C60164E070E089
:100580000E94460100E010E020E030E00894E11C09
:10059000F11CF7018081882309F0B8CF29960FB6A6
:1005A000F894DEBF0FBECDBFCF91DF911F910F91A9
:1005B000FF90EF90DF90CF90BF90AF900895CF92D3
:1005C000DF92EF92FF920F931F93DF93CF93CDB7FC
:1005D000DEB7C650D4400FB6F894DEBF0FBECDBF15
:1005E000D69AD098D198D298D398D498BF9ABE9AD8
:1005F000BD9ABC9A8F9A8E9A8D9A8C9A179A169A4F
:10060000159A149A0E947B00DE011696E0E0F1E054
:1006100081E094E001900D920197E1F7DE011196DF
:10062000E1E0F5E085E001900D928150E1F76E0187
:100630000894C11CD11C58ECE52EF12C8E010A5FE8
:100640001F4F83E290E065E070E041E050E00E94DF
:100650005F00C8990FC0DE9A81E090E00E9485009B
:10066000C60164E070E00E94460180E090E00E94D4
:100670008500DE98C99911C0DE9A81E090E00E9461
:10068000850080E593ECF7013197F1F70197D9F7F1
:1006900080E090E00E948500DE98CA9902C0DE9A50
:1006A000DE98CB990DC0DE9A81E090E00E94850033
:1006B000C8010E94FA0180E090E00E948500DE9867
:1006C000CC99BFCFDE9A0E94E500DE98BACFFC013C
:1006D00088279927E89421912032E9F3293010F0F6
:1006E0002E30C8F32B3241F02D3239F4689404C017
:1006F0000E948503820F911D219120532A30C0F35F
:100700001EF4909581959F4F08957AE0979F902DC4
:0E071000879F802D910D11240895F894FFCF3E
:10071E003130322C3231302C3038332C3031352CC4
:10072E003136302C3132372C3133322C3130382CAB
:10073E003230392C3138372C3232322C3038342C8E
:10074E003037392C3233342C3137352C3033302C82
:10075E003138302C3031312C3031332C3230372C83
:10076E003130342C3037322C3033352C3038372C66
:10077E003036352C3039332C3235332C3137382C4A
:10078E003133382C3137352C3235312C3036352C3F
:10079E003037372C3033382C3231322C3134342C34
:1007AE003130372C3036352C3139382C3031352C20
:1007BE003037352C3136382C3233392C3230362C0A
:1007CE003132352C3138322C3037322C3037392CFF
:1007DE003130332C3230312C3139362C3132312C00
:1007EE003037372C3133342C3035372C3234372CDC
:1007FE003030302C3035352C3133332C3139302CE0
:10080E003130372C3135312C3130322C3135362CCC
:10081E003031342C3131342C3139332C3031372CBA
:10082E003133362C3037312C3030352C3138382CA2
:10083E003034372C3034392C3138322C3038352C8A
:10084E003037322C3232342C3038352C3235332C82
:10085E003032342C3139382C3232392C3139392C62
:10086E003139392C3034362C3135312C3231322C61
:10087E003037332C3133332C3033382C3138382C4D
:10088E003137342C3134342C3133322C3136312C47
:10089E003231362C3230332C3035372C3032352C39
:1008AE003232362C3035372C3131372C3135392C1C
:1008BE003231352C3130352C3230392C3230352C1A
:1008CE003031392C3138302C3235352C3230372C02
:1008DE003131322C3036322C3131352C3131372CFE
:1008EE003233372C3234342C3033352C3035362CE1
:1008FE003039362C3036362C3234322C3037332CCD
:10090E003231372C3034382C3230382C3234342CBF
:10091E003139312C3130392C3039382C3137332CA8
:10092E003036382C3136372C3131362C3131352C9E
:10093E003235322C3234322C3034362C3030382C96
:10094E003136312C3130362C3137342C3130372C86
:10095E003032342C3130302C3234372C3035322C7E
:10096E003132362C3030362C3039342C3137322C63
:10097E003037362C3234352C3039312C3231372C4D
:10098E003036312C3234362C3234372C3037362C3C
:10099E003030392C3235332C3233352C3132392C30
:1009AE003135372C3137382C3132322C3138392C15
:1009BE003039342C3038312C3130322C3135302C1A
:1009CE003134352C3230382C3233322C3033372C04
:1009DE003035362C3036372C3035342C3035332CF0
:1009EE003131352C3130382C3138332C3232372CE2
:1009FE003137352C3130302C3031312C3035352CDF
:100A0E003131392C3230312C3132362C3232322CCB
:100A1E003032302C3038332C3131372C3134392CB4
:100A2E003234372C3039312C3232392C3131302CA2
:100A3E003136392C3031352C3131312C3133302C9B
:100A4E003232362C3134372C3139382C3035302C7B
:100A5E003234352C3136302C3231382C3135362C6F
:100A6E003030342C3138322C3032342C3032322C6F
:100A7E003230322C3136342C3137392C3136322C4F
:100A8E003231332C3232332C3030372C3139372C43
:100A9E003132392C3037382C3235352C3235342C26
:100AAE003035382C3039352C3136372C3231362C16
:100ABE003131372C3032302C3136332C3031392C19
:100ACE003231332C3136322C3136392C3035352CFF
:100ADE003035302C3234352C3231352C3134342CF7
:100AEE003137392C3035372C3031362C3036352CD9
:100AFE003036322C3039362C3131342C3133362CD1
:100B0E003138342C3136392C3137382C3130302CB9
:060B1E000000414243000B
:00000001FF
